:020000040800F2
:10000000600A00206D010008C9050008C10500084C
:10001000C5050008270200083D0700080000000091
:10002000000000000000000000000000ED050008D6
:100030002B02000800000000CB050008D9060008CC
:100040008701000887010008870100088701000870
:100050008701000887010008870100088701000860
:100060008701000887010008870100088701000850
:100070008701000887010008870100088701000840
:100080008701000887010008870100088701000830
:100090008701000887010008870100088701000820
:1000A0008701000887010008870100088701000810
:1000B0008701000887010008870100088701000800
:1000C00087010008870100088701000887010008F0
:1000D00087010008870100088701000887010008E0
:1000E00087010008870100088701000800F002F876
:1000F00000F02CF80AA090E8000C82448344AAF196
:100100000107DA4501D100F021F8AFF2090EBAE893
:100110000F0013F0010F18BFFB1A43F0010318473B
:100120004406000054060000002300240025002699
:10013000103A28BF78C1FBD8520728BF30C148BF4A
:100140000B6070471FB51FBD10B510BD00F031F832
:100150001146FFF7F7FF00F0F3FA00F04FF803B491
:10016000FFF7F2FF03BC00F057F800000948804792
:1001700009480047FEE7FEE7FEE7FEE7FEE7FEE789
:10018000FEE7FEE7FEE7FEE704480549054A064BA1
:1001900070470000DD060008ED0000086004002044
:1001A000600A00206006002060060020704770474B
:1001B0007047754600F02CF8AE4605006946534678
:1001C00020F00700854618B020B5FFF7DDFFBDE839
:1001D00020404FF000064FF000074FF000084FF0AE
:1001E000000B21F00701AC46ACE8C009ACE8C0093F
:1001F000ACE8C009ACE8C0098D46704710B50446AC
:10020000AFF300802046BDE81040FFF7A8BF000014
:10021000004870470004002001491820ABBEFEE7EB
:1002200026000200704700BFFEE7704710B50020AF
:1002300000F02AF9012000F01BF9012000F024F958
:1002400010BD000038B5002406E0002500E06D1C5C
:10025000B5F57A7FFBD3641CB4F57A7FF5D3012121
:10026000082000F0B3F90121082000F0AFF91420B4
:100270008DF8030003208DF802004FF48070ADF874
:1002800000006946084800F00BF94FF40070ADF823
:1002900000006946044800F003F9012000F0E8F886
:1002A000012000F0F1F838BD000C014070B50546A2
:1002B000002400BF11E080212141294009B1012122
:1002C00000E00021084600F0DFF8012000F0D0F83F
:1002D000002000F0CDF8601CC4B2082CEBDB01203C
:1002E00000F0C6F8002000F0C3F870BD10B5012082
:1002F00000F0CAF8012000F0BBF8002000F0C4F8BC
:10030000002000F0B5F810BD00200CE0002106E050
:100310000022064B03EBC0135A544A1CD1B2802969
:10032000F6DB421CD0B20828F0DB7047000000204A
:1003300010B500240BE00021204600F076F80549B6
:1003400001EBC410802100F054F8601CC4B2082CEA
:10035000F1DB10BD0000002010B5FFF773FFAE20E9
:1003600000F076F8D52000F073F8802000F070F8E7
:10037000A82000F06DF83F2000F06AF8D32000F0CC
:1003800067F8002000F064F8402000F061F8A12038
:1003900000F05EF8C82000F05BF8DA2000F058F8B2
:1003A000122000F055F8812000F052F8CF2000F024
:1003B0004FF8D92000F04CF8F12000F049F8DB208C
:1003C00000F046F8302000F043F8A42000F040F898
:1003D000A62000F03DF88D2000F03AF8142000F03F
:1003E00037F8AF2000F034F8FFF78EFFFFF7A0FFDB
:1003F00010BD2DE9F04105460E4600240027782067
:10040000FFF754FF4020FFF751FF00BF09E02F5DC9
:10041000FFF76CFF3846FFF749FFFFF707FF601C47
:10042000C4B2B442F3DBBDE8F08170B505460C46BA
:10043000A01CC4B245F0B00000F00AF8102141EA57
:10044000141000F005F804F00F0000F001F870BD82
:1004500010B50446FFF74AFF7820FFF727FF00207A
:10046000FFF724FF2046FFF721FFFFF7DFFE10BD57
:1004700010B5044622464FF48071024800F09BF804
:1004800010BD0000000C014010B5044622464FF498
:100490000071024800F08FF810BD0000000C014010
:1004A0002DE9F0410246002500260020002300240B
:1004B000002791F803C00CF00F0591F803C00CF071
:1004C000100CBCF1000F03D091F802C04CEA0505F6
:1004D00091F800C0BCF1000F31D0146800202BE06F
:1004E0004FF0010C0CFA00F3B1F800C00CEA03065F
:1004F0009E4220D183004FF00F0C0CFA03F7BC434F
:1005000005FA03FC4CEA040491F803C0BCF1280F7F
:1005100006D14FF0010C0CFA00FCC2F814C00AE03E
:1005200091F803C0BCF1480F05D14FF0010C0CFA53
:1005300000FCC2F810C0401C0828D1D31460B1F8E8
:1005400000C0BCF1FF0F34DD546800202EE000F144
:10055000080C4FF0010808FA0CF3B1F800C00CEADF
:1005600003069E4221D183004FF00F0C0CFA03F7D3
:10057000BC4305FA03FC4CEA040491F803C0BCF147
:10058000280F05D100F1080C08FA0CF8C2F8148005
:1005900091F803C0BCF1480F07D100F1080C4FF0EF
:1005A000010808FA0CF8C2F81080401C0828CED3C5
:1005B0005460BDE8F0810AB1016100E0416170471B
:1005C00000BFFEE700BFFEE77047704729B1064A4B
:1005D00092690243044B9A6104E0034A92698243A0
:1005E000014B9A617047000000100240704710B53F
:1005F00000F002F810BD00000CB500200190009042
:100600003348006840F480303149086000BF30480A
:10061000006800F4003000900198401C01900098A0
:1006200018B90198B0F5A06FF1D12948006800F41D
:10063000003010B10120009001E0002000900098EF
:10064000012843D12348006840F010002149086088
:100650000846006820F0030008600846006840F083
:10066000020008601A484068194948600846406816
:1006700048600846406840F480604860084640682A
:1006800020F47C1048600846406840F4E810486058
:100690000846006840F08070086000BF0C480068A1
:1006A00000F000700028F9D00948406820F00300ED
:1006B000074948600846406840F00200486000BFB3
:1006C0000348406800F00C000828F9D10CBD000078
:1006D00000100240002002407047000010B513488F
:1006E000006840F001001149086008464068104960
:1006F00008400E494860084600680E4908400B490A
:1007000008600846006820F48020086008464068B9
:1007100020F4FE0048604FF41F008860FFF767FF79
:100720004FF000600449086010BD00000010024056
:100730000000FFF8FFFFF6FE08ED00E000BFFEE757
:10074000FFF70AFE002405E0FF20054901EBC41174
:100750000871641C082CF7D3FFF7EAFD00BFFEE721
:10076000000000207407000800000020600A00005C
:040770002801000854
:04000005080000ED02
:00000001FF
